{
  "_format": "hh-sol-artifact-1",
  "contractName": "AuctionToken",
  "sourceName": "remix/AlaniAuctionExchange.sol",
  "abi": [
    {
      "inputs": [
        {
          "internalType": "uint256",
          "name": "initialSupply",
          "type": "uint256"
        }
      ],
      "stateMutability": "nonpayable",
      "type": "constructor"
    },
    {
      "inputs": [
        {
          "internalType": "address",
          "name": "spender",
          "type": "address"
        },
        {
          "internalType": "uint256",
          "name": "allowance",
          "type": "uint256"
        },
        {
          "internalType": "uint256",
          "name": "needed",
          "type": "uint256"
        }
      ],
      "name": "ERC20InsufficientAllowance",
      "type": "error"
    },
    {
      "inputs": [
        {
          "internalType": "address",
          "name": "sender",
          "type": "address"
        },
        {
          "internalType": "uint256",
          "name": "balance",
          "type": "uint256"
        },
        {
          "internalType": "uint256",
          "name": "needed",
          "type": "uint256"
        }
      ],
      "name": "ERC20InsufficientBalance",
      "type": "error"
    },
    {
      "inputs": [
        {
          "internalType": "address",
          "name": "approver",
          "type": "address"
        }
      ],
      "name": "ERC20InvalidApprover",
      "type": "error"
    },
    {
      "inputs": [
        {
          "internalType": "address",
          "name": "receiver",
          "type": "address"
        }
      ],
      "name": "ERC20InvalidReceiver",
      "type": "error"
    },
    {
      "inputs": [
        {
          "internalType": "address",
          "name": "sender",
          "type": "address"
        }
      ],
      "name": "ERC20InvalidSender",
      "type": "error"
    },
    {
      "inputs": [
        {
          "internalType": "address",
          "name": "spender",
          "type": "address"
        }
      ],
      "name": "ERC20InvalidSpender",
      "type": "error"
    },
    {
      "inputs": [],
      "name": "FaucetCooldownActive",
      "type": "error"
    },
    {
      "inputs": [
        {
          "internalType": "address",
          "name": "owner",
          "type": "address"
        }
      ],
      "name": "OwnableInvalidOwner",
      "type": "error"
    },
    {
      "inputs": [
        {
          "internalType": "address",
          "name": "account",
          "type": "address"
        }
      ],
      "name": "OwnableUnauthorizedAccount",
      "type": "error"
    },
    {
      "anonymous": false,
      "inputs": [
        {
          "indexed": true,
          "internalType": "address",
          "name": "owner",
          "type": "address"
        },
        {
          "indexed": true,
          "internalType": "address",
          "name": "spender",
          "type": "address"
        },
        {
          "indexed": false,
          "internalType": "uint256",
          "name": "value",
          "type": "uint256"
        }
      ],
      "name": "Approval",
      "type": "event"
    },
    {
      "anonymous": false,
      "inputs": [
        {
          "indexed": false,
          "internalType": "uint256",
          "name": "oldAmount",
          "type": "uint256"
        },
        {
          "indexed": false,
          "internalType": "uint256",
          "name": "newAmount",
          "type": "uint256"
        }
      ],
      "name": "FaucetAmountUpdated",
      "type": "event"
    },
    {
      "anonymous": false,
      "inputs": [
        {
          "indexed": true,
          "internalType": "address",
          "name": "previousOwner",
          "type": "address"
        },
        {
          "indexed": true,
          "internalType": "address",
          "name": "newOwner",
          "type": "address"
        }
      ],
      "name": "OwnershipTransferred",
      "type": "event"
    },
    {
      "anonymous": false,
      "inputs": [
        {
          "indexed": true,
          "internalType": "address",
          "name": "from",
          "type": "address"
        },
        {
          "indexed": true,
          "internalType": "address",
          "name": "to",
          "type": "address"
        },
        {
          "indexed": false,
          "internalType": "uint256",
          "name": "value",
          "type": "uint256"
        }
      ],
      "name": "Transfer",
      "type": "event"
    },
    {
      "inputs": [
        {
          "internalType": "address",
          "name": "owner",
          "type": "address"
        },
        {
          "internalType": "address",
          "name": "spender",
          "type": "address"
        }
      ],
      "name": "allowance",
      "outputs": [
        {
          "internalType": "uint256",
          "name": "",
          "type": "uint256"
        }
      ],
      "stateMutability": "view",
      "type": "function"
    },
    {
      "inputs": [
        {
          "internalType": "address",
          "name": "spender",
          "type": "address"
        },
        {
          "internalType": "uint256",
          "name": "value",
          "type": "uint256"
        }
      ],
      "name": "approve",
      "outputs": [
        {
          "internalType": "bool",
          "name": "",
          "type": "bool"
        }
      ],
      "stateMutability": "nonpayable",
      "type": "function"
    },
    {
      "inputs": [
        {
          "internalType": "address",
          "name": "account",
          "type": "address"
        }
      ],
      "name": "balanceOf",
      "outputs": [
        {
          "internalType": "uint256",
          "name": "",
          "type": "uint256"
        }
      ],
      "stateMutability": "view",
      "type": "function"
    },
    {
      "inputs": [],
      "name": "claimFromFaucet",
      "outputs": [],
      "stateMutability": "nonpayable",
      "type": "function"
    },
    {
      "inputs": [],
      "name": "decimals",
      "outputs": [
        {
          "internalType": "uint8",
          "name": "",
          "type": "uint8"
        }
      ],
      "stateMutability": "view",
      "type": "function"
    },
    {
      "inputs": [],
      "name": "faucetAmount",
      "outputs": [
        {
          "internalType": "uint256",
          "name": "",
          "type": "uint256"
        }
      ],
      "stateMutability": "view",
      "type": "function"
    },
    {
      "inputs": [
        {
          "internalType": "address",
          "name": "",
          "type": "address"
        }
      ],
      "name": "lastClaimedAt",
      "outputs": [
        {
          "internalType": "uint256",
          "name": "",
          "type": "uint256"
        }
      ],
      "stateMutability": "view",
      "type": "function"
    },
    {
      "inputs": [
        {
          "internalType": "address",
          "name": "to",
          "type": "address"
        },
        {
          "internalType": "uint256",
          "name": "amount",
          "type": "uint256"
        }
      ],
      "name": "mint",
      "outputs": [],
      "stateMutability": "nonpayable",
      "type": "function"
    },
    {
      "inputs": [],
      "name": "name",
      "outputs": [
        {
          "internalType": "string",
          "name": "",
          "type": "string"
        }
      ],
      "stateMutability": "view",
      "type": "function"
    },
    {
      "inputs": [],
      "name": "owner",
      "outputs": [
        {
          "internalType": "address",
          "name": "",
          "type": "address"
        }
      ],
      "stateMutability": "view",
      "type": "function"
    },
    {
      "inputs": [],
      "name": "renounceOwnership",
      "outputs": [],
      "stateMutability": "nonpayable",
      "type": "function"
    },
    {
      "inputs": [
        {
          "internalType": "uint256",
          "name": "newAmount",
          "type": "uint256"
        }
      ],
      "name": "setFaucetAmount",
      "outputs": [],
      "stateMutability": "nonpayable",
      "type": "function"
    },
    {
      "inputs": [],
      "name": "symbol",
      "outputs": [
        {
          "internalType": "string",
          "name": "",
          "type": "string"
        }
      ],
      "stateMutability": "view",
      "type": "function"
    },
    {
      "inputs": [],
      "name": "totalSupply",
      "outputs": [
        {
          "internalType": "uint256",
          "name": "",
          "type": "uint256"
        }
      ],
      "stateMutability": "view",
      "type": "function"
    },
    {
      "inputs": [
        {
          "internalType": "address",
          "name": "to",
          "type": "address"
        },
        {
          "internalType": "uint256",
          "name": "value",
          "type": "uint256"
        }
      ],
      "name": "transfer",
      "outputs": [
        {
          "internalType": "bool",
          "name": "",
          "type": "bool"
        }
      ],
      "stateMutability": "nonpayable",
      "type": "function"
    },
    {
      "inputs": [
        {
          "internalType": "address",
          "name": "from",
          "type": "address"
        },
        {
          "internalType": "address",
          "name": "to",
          "type": "address"
        },
        {
          "internalType": "uint256",
          "name": "value",
          "type": "uint256"
        }
      ],
      "name": "transferFrom",
      "outputs": [
        {
          "internalType": "bool",
          "name": "",
          "type": "bool"
        }
      ],
      "stateMutability": "nonpayable",
      "type": "function"
    },
    {
      "inputs": [
        {
          "internalType": "address",
          "name": "newOwner",
          "type": "address"
        }
      ],
      "name": "transferOwnership",
      "outputs": [],
      "stateMutability": "nonpayable",
      "type": "function"
    }
  ],
  "bytecode": "0x6080604052683635c9adc5dea0000060065534801561001d57600080fd5b50604051611d73380380611d73833981810160405281019061003f9190610514565b336040518060400160405280600581526020017f416c616e690000000000000000000000000000000000000000000000000000008152506040518060400160405280600581526020017f414c414e4900000000000000000000000000000000000000000000000000000081525081600390816100bb9190610787565b5080600490816100cb9190610787565b505050600073ffffffffffffffffffffffffffffffffffffffff168173ffffffffffffffffffffffffffffffffffffffff16036101405760006040517f1e4fbdf7000000000000000000000000000000000000000000000000000000008152600401610137919061089a565b60405180910390fd5b61014f8161016660201b60201c565b50610160338261022c60201b60201c565b50610979565b6000600560009054906101000a900473ffffffffffffffffffffffffffffffffffffffff16905081600560006101000a81548173ffffffffffffffffffffffffffffffffffffffff021916908373ffffffffffffffffffffffffffffffffffffffff1602179055508173ffffffffffffffffffffffffffffffffffffffff168173ffffffffffffffffffffffffffffffffffffffff167f8be0079c531659141344cd1fd0a4f28419497f9722a3daafe3b4186f6b6457e060405160405180910390a35050565b600073ffffffffffffffffffffffffffffffffffffffff168273ffffffffffffffffffffffffffffffffffffffff160361029e5760006040517fec442f05000000000000000000000000000000000000000000000000000000008152600401610295919061089a565b60405180910390fd5b6102b0600083836102b460201b60201c565b5050565b600073ffffffffffffffffffffffffffffffffffffffff168373ffffffffffffffffffffffffffffffffffffffff16036103065780600260008282546102fa91906108e4565b925050819055506103d9565b60008060008573ffffffffffffffffffffffffffffffffffffffff1673ffffffffffffffffffffffffffffffffffffffff16815260200190815260200160002054905081811015610392578381836040517fe450d38c00000000000000000000000000000000000000000000000000000000815260040161038993929190610927565b60405180910390fd5b8181036000808673ffffffffffffffffffffffffffffffffffffffff1673ffffffffffffffffffffffffffffffffffffffff16815260200190815260200160002081905550505b600073ffffffffffffffffffffffffffffffffffffffff168273ffffffffffffffffffffffffffffffffffffffff1603610422578060026000828254039250508190555061046f565b806000808473ffffffffffffffffffffffffffffffffffffffff1673ffffffffffffffffffffffffffffffffffffffff168152602001908152602001600020600082825401925050819055505b8173ffffffffffffffffffffffffffffffffffffffff168373ffffffffffffffffffffffffffffffffffffffff167fddf252ad1be2c89b69c2b068fc378daa952ba7f163c4a11628f55a4df523b3ef836040516104cc919061095e565b60405180910390a3505050565b600080fd5b6000819050919050565b6104f1816104de565b81146104fc57600080fd5b50565b60008151905061050e816104e8565b92915050565b60006020828403121561052a576105296104d9565b5b6000610538848285016104ff565b91505092915050565b600081519050919050565b7f4e487b7100000000000000000000000000000000000000000000000000000000600052604160045260246000fd5b7f4e487b7100000000000000000000000000000000000000000000000000000000600052602260045260246000fd5b600060028204905060018216806105c257607f821691505b6020821081036105d5576105d461057b565b5b50919050565b60008190508160005260206000209050919050565b60006020601f8301049050919050565b600082821b905092915050565b60006008830261063d7fffffffffffffffffffffffffffffffffffffffffffffffffffffffffffffffff82610600565b6106478683610600565b95508019841693508086168417925050509392505050565b6000819050919050565b600061068461067f61067a846104de565b61065f565b6104de565b9050919050565b6000819050919050565b61069e83610669565b6106b26106aa8261068b565b84845461060d565b825550505050565b600090565b6106c76106ba565b6106d2818484610695565b505050565b5b818110156106f6576106eb6000826106bf565b6001810190506106d8565b5050565b601f82111561073b5761070c816105db565b610715846105f0565b81016020851015610724578190505b610738610730856105f0565b8301826106d7565b50505b505050565b600082821c905092915050565b600061075e60001984600802610740565b1980831691505092915050565b6000610777838361074d565b9150826002028217905092915050565b61079082610541565b67ffffffffffffffff8111156107a9576107a861054c565b5b6107b382546105aa565b6107be8282856106fa565b600060209050601f8311600181146107f157600084156107df578287015190505b6107e9858261076b565b865550610851565b601f1984166107ff866105db565b60005b8281101561082757848901518255600182019150602085019450602081019050610802565b868310156108445784890151610840601f89168261074d565b8355505b6001600288020188555050505b505050505050565b600073ffffffffffffffffffffffffffffffffffffffff82169050919050565b600061088482610859565b9050919050565b61089481610879565b82525050565b60006020820190506108af600083018461088b565b92915050565b7f4e487b7100000000000000000000000000000000000000000000000000000000600052601160045260246000fd5b60006108ef826104de565b91506108fa836104de565b9250828201905080821115610912576109116108b5565b5b92915050565b610921816104de565b82525050565b600060608201905061093c600083018661088b565b6109496020830185610918565b6109566040830184610918565b949350505050565b60006020820190506109736000830184610918565b92915050565b6113eb806109886000396000f3fe608060405234801561001057600080fd5b506004361061010b5760003560e01c8063715018a6116100a25780639c281430116100715780639c281430146102a8578063a9059cbb146102c6578063dd62ed3e146102f6578063f2fde38b14610326578063fbbfb782146103425761010b565b8063715018a61461024657806381d2fd9c146102505780638da5cb5b1461026c57806395d89b411461028a5761010b565b806326a40c99116100de57806326a40c99146101ac578063313ce567146101dc57806340c10f19146101fa57806370a08231146102165761010b565b806306fdde0314610110578063095ea7b31461012e57806318160ddd1461015e57806323b872dd1461017c575b600080fd5b61011861034c565b6040516101259190610fe9565b60405180910390f35b610148600480360381019061014391906110a4565b6103de565b60405161015591906110ff565b60405180910390f35b610166610401565b6040516101739190611129565b60405180910390f35b61019660048036038101906101919190611144565b61040b565b6040516101a391906110ff565b60405180910390f35b6101c660048036038101906101c19190611197565b61043a565b6040516101d39190611129565b60405180910390f35b6101e4610452565b6040516101f191906111e0565b60405180910390f35b610214600480360381019061020f91906110a4565b61045b565b005b610230600480360381019061022b9190611197565b610471565b60405161023d9190611129565b60405180910390f35b61024e6104b9565b005b61026a600480360381019061026591906111fb565b6104cd565b005b610274610520565b6040516102819190611237565b60405180910390f35b61029261054a565b60405161029f9190610fe9565b60405180910390f35b6102b06105dc565b6040516102bd9190611129565b60405180910390f35b6102e060048036038101906102db91906110a4565b6105e2565b6040516102ed91906110ff565b60405180910390f35b610310600480360381019061030b9190611252565b610605565b60405161031d9190611129565b60405180910390f35b610340600480360381019061033b9190611197565b61068c565b005b61034a610712565b005b60606003805461035b906112c1565b80601f0160208091040260200160405190810160405280929190818152602001828054610387906112c1565b80156103d45780601f106103a9576101008083540402835291602001916103d4565b820191906000526020600020905b8154815290600101906020018083116103b757829003601f168201915b5050505050905090565b6000806103e96107eb565b90506103f68185856107f3565b600191505092915050565b6000600254905090565b6000806104166107eb565b9050610423858285610805565b61042e85858561089a565b60019150509392505050565b60076020528060005260406000206000915090505481565b60006012905090565b61046361098e565b61046d8282610a15565b5050565b60008060008373ffffffffffffffffffffffffffffffffffffffff1673ffffffffffffffffffffffffffffffffffffffff168152602001908152602001600020549050919050565b6104c161098e565b6104cb6000610a97565b565b6104d561098e565b60006006549050816006819055507fd5c900865c3981f605a346229a46710bb52560a90e461926816f770cb1b4549b81836040516105149291906112f2565b60405180910390a15050565b6000600560009054906101000a900473ffffffffffffffffffffffffffffffffffffffff16905090565b606060048054610559906112c1565b80601f0160208091040260200160405190810160405280929190818152602001828054610585906112c1565b80156105d25780601f106105a7576101008083540402835291602001916105d2565b820191906000526020600020905b8154815290600101906020018083116105b557829003601f168201915b5050505050905090565b60065481565b6000806105ed6107eb565b90506105fa81858561089a565b600191505092915050565b6000600160008473ffffffffffffffffffffffffffffffffffffffff1673ffffffffffffffffffffffffffffffffffffffff16815260200190815260200160002060008373ffffffffffffffffffffffffffffffffffffffff1673ffffffffffffffffffffffffffffffffffffffff16815260200190815260200160002054905092915050565b61069461098e565b600073ffffffffffffffffffffffffffffffffffffffff168173ffffffffffffffffffffffffffffffffffffffff16036107065760006040517f1e4fbdf70000000000000000000000000000000000000000000000000000000081526004016106fd9190611237565b60405180910390fd5b61070f81610a97565b50565b62015180600760003373ffffffffffffffffffffffffffffffffffffffff1673ffffffffffffffffffffffffffffffffffffffff16815260200190815260200160002054610760919061134a565b421015610799576040517f85d9f78c00000000000000000000000000000000000000000000000000000000815260040160405180910390fd5b42600760003373ffffffffffffffffffffffffffffffffffffffff1673ffffffffffffffffffffffffffffffffffffffff168152602001908152602001600020819055506107e933600654610a15565b565b600033905090565b6108008383836001610b5d565b505050565b60006108118484610605565b90507fffffffffffffffffffffffffffffffffffffffffffffffffffffffffffffffff8110156108945781811015610884578281836040517ffb8f41b200000000000000000000000000000000000000000000000000000000815260040161087b9392919061137e565b60405180910390fd5b61089384848484036000610b5d565b5b50505050565b600073ffffffffffffffffffffffffffffffffffffffff168373ffffffffffffffffffffffffffffffffffffffff160361090c5760006040517f96c6fd1e0000000000000000000000000000000000000000000000000000000081526004016109039190611237565b60405180910390fd5b600073ffffffffffffffffffffffffffffffffffffffff168273ffffffffffffffffffffffffffffffffffffffff160361097e5760006040517fec442f050000000000000000000000000000000000000000000000000000000081526004016109759190611237565b60405180910390fd5b610989838383610d34565b505050565b6109966107eb565b73ffffffffffffffffffffffffffffffffffffffff166109b4610520565b73ffffffffffffffffffffffffffffffffffffffff1614610a13576109d76107eb565b6040517f118cdaa7000000000000000000000000000000000000000000000000000000008152600401610a0a9190611237565b60405180910390fd5b565b600073ffffffffffffffffffffffffffffffffffffffff168273ffffffffffffffffffffffffffffffffffffffff1603610a875760006040517fec442f05000000000000000000000000000000000000000000000000000000008152600401610a7e9190611237565b60405180910390fd5b610a9360008383610d34565b5050565b6000600560009054906101000a900473ffffffffffffffffffffffffffffffffffffffff16905081600560006101000a81548173ffffffffffffffffffffffffffffffffffffffff021916908373ffffffffffffffffffffffffffffffffffffffff1602179055508173ffffffffffffffffffffffffffffffffffffffff168173ffffffffffffffffffffffffffffffffffffffff167f8be0079c531659141344cd1fd0a4f28419497f9722a3daafe3b4186f6b6457e060405160405180910390a35050565b600073ffffffffffffffffffffffffffffffffffffffff168473ffffffffffffffffffffffffffffffffffffffff1603610bcf5760006040517fe602df05000000000000000000000000000000000000000000000000000000008152600401610bc69190611237565b60405180910390fd5b600073ffffffffffffffffffffffffffffffffffffffff168373ffffffffffffffffffffffffffffffffffffffff1603610c415760006040517f94280d62000000000000000000000000000000000000000000000000000000008152600401610c389190611237565b60405180910390fd5b81600160008673ffffffffffffffffffffffffffffffffffffffff1673ffffffffffffffffffffffffffffffffffffffff16815260200190815260200160002060008573ffffffffffffffffffffffffffffffffffffffff1673ffffffffffffffffffffffffffffffffffffffff168152602001908152602001600020819055508015610d2e578273ffffffffffffffffffffffffffffffffffffffff168473ffffffffffffffffffffffffffffffffffffffff167f8c5be1e5ebec7d5bd14f71427d1e84f3dd0314c0f7b2291e5b200ac8c7c3b92584604051610d259190611129565b60405180910390a35b50505050565b600073ffffffffffffffffffffffffffffffffffffffff168373ffffffffffffffffffffffffffffffffffffffff1603610d86578060026000828254610d7a919061134a565b92505081905550610e59565b60008060008573ffffffffffffffffffffffffffffffffffffffff1673ffffffffffffffffffffffffffffffffffffffff16815260200190815260200160002054905081811015610e12578381836040517fe450d38c000000000000000000000000000000000000000000000000000000008152600401610e099392919061137e565b60405180910390fd5b8181036000808673ffffffffffffffffffffffffffffffffffffffff1673ffffffffffffffffffffffffffffffffffffffff16815260200190815260200160002081905550505b600073ffffffffffffffffffffffffffffffffffffffff168273ffffffffffffffffffffffffffffffffffffffff1603610ea25780600260008282540392505081905550610eef565b806000808473ffffffffffffffffffffffffffffffffffffffff1673ffffffffffffffffffffffffffffffffffffffff168152602001908152602001600020600082825401925050819055505b8173ffffffffffffffffffffffffffffffffffffffff168373ffffffffffffffffffffffffffffffffffffffff167fddf252ad1be2c89b69c2b068fc378daa952ba7f163c4a11628f55a4df523b3ef83604051610f4c9190611129565b60405180910390a3505050565b600081519050919050565b600082825260208201905092915050565b60005b83811015610f93578082015181840152602081019050610f78565b60008484015250505050565b6000601f19601f8301169050919050565b6000610fbb82610f59565b610fc58185610f64565b9350610fd5818560208601610f75565b610fde81610f9f565b840191505092915050565b600060208201905081810360008301526110038184610fb0565b905092915050565b600080fd5b600073ffffffffffffffffffffffffffffffffffffffff82169050919050565b600061103b82611010565b9050919050565b61104b81611030565b811461105657600080fd5b50565b60008135905061106881611042565b92915050565b6000819050919050565b6110818161106e565b811461108c57600080fd5b50565b60008135905061109e81611078565b92915050565b600080604083850312156110bb576110ba61100b565b5b60006110c985828601611059565b92505060206110da8582860161108f565b9150509250929050565b60008115159050919050565b6110f9816110e4565b82525050565b600060208201905061111460008301846110f0565b92915050565b6111238161106e565b82525050565b600060208201905061113e600083018461111a565b92915050565b60008060006060848603121561115d5761115c61100b565b5b600061116b86828701611059565b935050602061117c86828701611059565b925050604061118d8682870161108f565b9150509250925092565b6000602082840312156111ad576111ac61100b565b5b60006111bb84828501611059565b91505092915050565b600060ff82169050919050565b6111da816111c4565b82525050565b60006020820190506111f560008301846111d1565b92915050565b6000602082840312156112115761121061100b565b5b600061121f8482850161108f565b91505092915050565b61123181611030565b82525050565b600060208201905061124c6000830184611228565b92915050565b600080604083850312156112695761126861100b565b5b600061127785828601611059565b925050602061128885828601611059565b9150509250929050565b7f4e487b7100000000000000000000000000000000000000000000000000000000600052602260045260246000fd5b600060028204905060018216806112d957607f821691505b6020821081036112ec576112eb611292565b5b50919050565b6000604082019050611307600083018561111a565b611314602083018461111a565b9392505050565b7f4e487b7100000000000000000000000000000000000000000000000000000000600052601160045260246000fd5b60006113558261106e565b91506113608361106e565b92508282019050808211156113785761137761131b565b5b92915050565b60006060820190506113936000830186611228565b6113a0602083018561111a565b6113ad604083018461111a565b94935050505056fea2646970667358221220bfbd9d29603dd56af6a3e8c5403ea40222e67e4aa0b3bb8bb94b658d8b00a62364736f6c634300081c0033",
  "linkReferences": {},
  "deployedLinkReferences": {}
}