{
  "_format": "hh-sol-artifact-1",
  "contractName": "TokenAuctionHouse",
  "sourceName": "remix/AlaniAuctionExchange.sol",
  "abi": [
    {
      "inputs": [
        {
          "internalType": "address",
          "name": "tokenAddress",
          "type": "address"
        }
      ],
      "stateMutability": "nonpayable",
      "type": "constructor"
    },
    {
      "inputs": [],
      "name": "AuctionEnded",
      "type": "error"
    },
    {
      "inputs": [],
      "name": "AuctionNotActive",
      "type": "error"
    },
    {
      "inputs": [],
      "name": "AuctionNotFound",
      "type": "error"
    },
    {
      "inputs": [],
      "name": "AuctionStillActive",
      "type": "error"
    },
    {
      "inputs": [
        {
          "internalType": "uint256",
          "name": "requiredBid",
          "type": "uint256"
        }
      ],
      "name": "BidTooLow",
      "type": "error"
    },
    {
      "inputs": [],
      "name": "EmptyTitle",
      "type": "error"
    },
    {
      "inputs": [],
      "name": "ExistingBid",
      "type": "error"
    },
    {
      "inputs": [],
      "name": "InvalidDuration",
      "type": "error"
    },
    {
      "inputs": [],
      "name": "InvalidIncrement",
      "type": "error"
    },
    {
      "inputs": [],
      "name": "InvalidTokenAddress",
      "type": "error"
    },
    {
      "inputs": [],
      "name": "OnlySeller",
      "type": "error"
    },
    {
      "inputs": [],
      "name": "ReentrancyDetected",
      "type": "error"
    },
    {
      "inputs": [],
      "name": "SellerCannotBid",
      "type": "error"
    },
    {
      "inputs": [],
      "name": "TokenTransferFailed",
      "type": "error"
    },
    {
      "anonymous": false,
      "inputs": [
        {
          "indexed": true,
          "internalType": "uint256",
          "name": "auctionId",
          "type": "uint256"
        }
      ],
      "name": "AuctionCancelled",
      "type": "event"
    },
    {
      "anonymous": false,
      "inputs": [
        {
          "indexed": true,
          "internalType": "uint256",
          "name": "auctionId",
          "type": "uint256"
        },
        {
          "indexed": true,
          "internalType": "address",
          "name": "seller",
          "type": "address"
        },
        {
          "indexed": false,
          "internalType": "string",
          "name": "title",
          "type": "string"
        },
        {
          "indexed": false,
          "internalType": "uint256",
          "name": "startingBid",
          "type": "uint256"
        },
        {
          "indexed": false,
          "internalType": "uint256",
          "name": "minIncrement",
          "type": "uint256"
        },
        {
          "indexed": false,
          "internalType": "uint256",
          "name": "endTime",
          "type": "uint256"
        }
      ],
      "name": "AuctionCreated",
      "type": "event"
    },
    {
      "anonymous": false,
      "inputs": [
        {
          "indexed": true,
          "internalType": "uint256",
          "name": "auctionId",
          "type": "uint256"
        },
        {
          "indexed": true,
          "internalType": "address",
          "name": "winner",
          "type": "address"
        },
        {
          "indexed": false,
          "internalType": "uint256",
          "name": "winningBid",
          "type": "uint256"
        }
      ],
      "name": "AuctionFinalized",
      "type": "event"
    },
    {
      "anonymous": false,
      "inputs": [
        {
          "indexed": true,
          "internalType": "uint256",
          "name": "auctionId",
          "type": "uint256"
        },
        {
          "indexed": true,
          "internalType": "address",
          "name": "bidder",
          "type": "address"
        },
        {
          "indexed": false,
          "internalType": "uint256",
          "name": "amount",
          "type": "uint256"
        }
      ],
      "name": "BidPlaced",
      "type": "event"
    },
    {
      "anonymous": false,
      "inputs": [
        {
          "indexed": true,
          "internalType": "uint256",
          "name": "auctionId",
          "type": "uint256"
        },
        {
          "indexed": true,
          "internalType": "address",
          "name": "bidder",
          "type": "address"
        },
        {
          "indexed": false,
          "internalType": "uint256",
          "name": "amount",
          "type": "uint256"
        }
      ],
      "name": "PreviousBidRefunded",
      "type": "event"
    },
    {
      "inputs": [],
      "name": "auctionCount",
      "outputs": [
        {
          "internalType": "uint256",
          "name": "",
          "type": "uint256"
        }
      ],
      "stateMutability": "view",
      "type": "function"
    },
    {
      "inputs": [],
      "name": "bidToken",
      "outputs": [
        {
          "internalType": "contract IERC20",
          "name": "",
          "type": "address"
        }
      ],
      "stateMutability": "view",
      "type": "function"
    },
    {
      "inputs": [
        {
          "internalType": "uint256",
          "name": "auctionId",
          "type": "uint256"
        }
      ],
      "name": "cancelAuction",
      "outputs": [],
      "stateMutability": "nonpayable",
      "type": "function"
    },
    {
      "inputs": [
        {
          "internalType": "string",
          "name": "title",
          "type": "string"
        },
        {
          "internalType": "string",
          "name": "description",
          "type": "string"
        },
        {
          "internalType": "uint256",
          "name": "startingBid",
          "type": "uint256"
        },
        {
          "internalType": "uint256",
          "name": "minIncrement",
          "type": "uint256"
        },
        {
          "internalType": "uint256",
          "name": "durationSeconds",
          "type": "uint256"
        }
      ],
      "name": "createAuction",
      "outputs": [
        {
          "internalType": "uint256",
          "name": "auctionId",
          "type": "uint256"
        }
      ],
      "stateMutability": "nonpayable",
      "type": "function"
    },
    {
      "inputs": [
        {
          "internalType": "uint256",
          "name": "auctionId",
          "type": "uint256"
        }
      ],
      "name": "finalizeAuction",
      "outputs": [],
      "stateMutability": "nonpayable",
      "type": "function"
    },
    {
      "inputs": [
        {
          "internalType": "uint256",
          "name": "auctionId",
          "type": "uint256"
        }
      ],
      "name": "getAuction",
      "outputs": [
        {
          "components": [
            {
              "internalType": "address",
              "name": "seller",
              "type": "address"
            },
            {
              "internalType": "string",
              "name": "title",
              "type": "string"
            },
            {
              "internalType": "string",
              "name": "description",
              "type": "string"
            },
            {
              "internalType": "uint256",
              "name": "startingBid",
              "type": "uint256"
            },
            {
              "internalType": "uint256",
              "name": "minIncrement",
              "type": "uint256"
            },
            {
              "internalType": "uint256",
              "name": "endTime",
              "type": "uint256"
            },
            {
              "internalType": "address",
              "name": "highestBidder",
              "type": "address"
            },
            {
              "internalType": "uint256",
              "name": "highestBid",
              "type": "uint256"
            },
            {
              "internalType": "enum TokenAuctionHouse.AuctionStatus",
              "name": "status",
              "type": "uint8"
            }
          ],
          "internalType": "struct TokenAuctionHouse.Auction",
          "name": "",
          "type": "tuple"
        }
      ],
      "stateMutability": "view",
      "type": "function"
    },
    {
      "inputs": [
        {
          "internalType": "uint256",
          "name": "auctionId",
          "type": "uint256"
        }
      ],
      "name": "getRequiredBid",
      "outputs": [
        {
          "internalType": "uint256",
          "name": "",
          "type": "uint256"
        }
      ],
      "stateMutability": "view",
      "type": "function"
    },
    {
      "inputs": [
        {
          "internalType": "uint256",
          "name": "auctionId",
          "type": "uint256"
        }
      ],
      "name": "isActive",
      "outputs": [
        {
          "internalType": "bool",
          "name": "",
          "type": "bool"
        }
      ],
      "stateMutability": "view",
      "type": "function"
    },
    {
      "inputs": [
        {
          "internalType": "uint256",
          "name": "auctionId",
          "type": "uint256"
        },
        {
          "internalType": "uint256",
          "name": "amount",
          "type": "uint256"
        }
      ],
      "name": "placeBid",
      "outputs": [],
      "stateMutability": "nonpayable",
      "type": "function"
    }
  ],
  "bytecode": "0x60a060405234801561001057600080fd5b5060405161211238038061211283398181016040528101906100329190610135565b600073ffffffffffffffffffffffffffffffffffffffff168173ffffffffffffffffffffffffffffffffffffffff1603610098576040517f1eb00b0600000000000000000000000000000000000000000000000000000000815260040160405180910390fd5b8073ffffffffffffffffffffffffffffffffffffffff1660808173ffffffffffffffffffffffffffffffffffffffff168152505050610162565b600080fd5b600073ffffffffffffffffffffffffffffffffffffffff82169050919050565b6000610102826100d7565b9050919050565b610112816100f7565b811461011d57600080fd5b50565b60008151905061012f81610109565b92915050565b60006020828403121561014b5761014a6100d2565b5b600061015984828501610120565b91505092915050565b608051611f80610192600039600081816104f0015281816106780152818161111a01526113300152611f806000f3fe608060405234801561001057600080fd5b50600436106100935760003560e01c806378bd79351161006657806378bd79351461013257806382afd23b1461016257806396b5a75514610192578063dfafd4fd146101ae578063e8083863146101cc57610093565b80632ad7157314610098578063493d5f02146100b657806357c90de5146100e65780635800eafa14610102575b600080fd5b6100a06101e8565b6040516100ad9190611565565b60405180910390f35b6100d060048036038101906100cb91906115b6565b6101ee565b6040516100dd9190611565565b60405180910390f35b61010060048036038101906100fb91906115e3565b610286565b005b61011c60048036038101906101179190611688565b61080d565b6040516101299190611565565b60405180910390f35b61014c600480360381019061014791906115b6565b610b7c565b6040516101599190611967565b60405180910390f35b61017c600480360381019061017791906115b6565b610e26565b60405161018991906119a4565b60405180910390f35b6101ac60048036038101906101a791906115b6565b610ed8565b005b6101b6611118565b6040516101c39190611a1e565b60405180910390f35b6101e660048036038101906101e191906115b6565b61113c565b005b60005481565b6000816000811480610201575060005481115b15610238576040517f0e28b8be00000000000000000000000000000000000000000000000000000000815260040160405180910390fd5b60006002600085815260200190815260200160002090506000816007015403610268578060030154925050610280565b8060040154816007015461027c9190611a68565b9250505b50919050565b600160009054906101000a900460ff16156102cd576040517fc5f2be5100000000000000000000000000000000000000000000000000000000815260040160405180910390fd5b60018060006101000a81548160ff0219169083151502179055508160008114806102f8575060005481115b1561032f576040517f0e28b8be00000000000000000000000000000000000000000000000000000000815260040160405180910390fd5b60006002600085815260200190815260200160002090506000600281111561035a57610359611824565b5b8160080160009054906101000a900460ff16600281111561037e5761037d611824565b5b146103b5576040517f69b8d0fe00000000000000000000000000000000000000000000000000000000815260040160405180910390fd5b806005015442106103f2576040517fa0e9298400000000000000000000000000000000000000000000000000000000815260040160405180910390fd5b8060000160009054906101000a900473ffffffffffffffffffffffffffffffffffffffff1673ffffffffffffffffffffffffffffffffffffffff163373ffffffffffffffffffffffffffffffffffffffff160361047b576040517fef02588900000000000000000000000000000000000000000000000000000000815260040160405180910390fd5b6000808260070154146104a1578160040154826007015461049c9190611a68565b6104a7565b81600301545b9050808410156104ee57806040517f31173c650000000000000000000000000000000000000000000000000000000081526004016104e59190611565565b60405180910390fd5b7f000000000000000000000000000000000000000000000000000000000000000073ffffffffffffffffffffffffffffffffffffffff166323b872dd3330876040518463ffffffff1660e01b815260040161054b93929190611aab565b6020604051808303816000875af115801561056a573d6000803e3d6000fd5b505050506040513d601f19601f8201168201806040525081019061058e9190611b0e565b6105c4576040517f045c4b0200000000000000000000000000000000000000000000000000000000815260040160405180910390fd5b60008260060160009054906101000a900473ffffffffffffffffffffffffffffffffffffffff169050600083600701549050338460060160006101000a81548173ffffffffffffffffffffffffffffffffffffffff021916908373ffffffffffffffffffffffffffffffffffffffff160217905550858460070181905550600073ffffffffffffffffffffffffffffffffffffffff168273ffffffffffffffffffffffffffffffffffffffff161461079a577f000000000000000000000000000000000000000000000000000000000000000073ffffffffffffffffffffffffffffffffffffffff1663a9059cbb83836040518363ffffffff1660e01b81526004016106d1929190611b3b565b6020604051808303816000875af11580156106f0573d6000803e3d6000fd5b505050506040513d601f19601f820116820180604052508101906107149190611b0e565b61074a576040517f045c4b0200000000000000000000000000000000000000000000000000000000815260040160405180910390fd5b8173ffffffffffffffffffffffffffffffffffffffff16877f07cd034a4d5cadcb2725848053fda1ce3d7461d6cb8f30e450f54c0f8449d096836040516107919190611565565b60405180910390a35b3373ffffffffffffffffffffffffffffffffffffffff16877f0e54eff26401bf69b81b26f60bd85ef47f5d85275c1d268d84f68d6897431c47886040516107e19190611565565b60405180910390a350505050506000600160006101000a81548160ff0219169083151502179055505050565b600080888890500361084b576040517fa5bb9bde00000000000000000000000000000000000000000000000000000000815260040160405180910390fd5b61012c821015610887576040517f7616640100000000000000000000000000000000000000000000000000000000815260040160405180910390fd5b600083036108c1576040517fb13381be00000000000000000000000000000000000000000000000000000000815260040160405180910390fd5b60008081546108cf90611b64565b9190508190559050600082426108e59190611a68565b90506040518061012001604052803373ffffffffffffffffffffffffffffffffffffffff1681526020018a8a8080601f016020809104026020016040519081016040528093929190818152602001838380828437600081840152601f19601f82011690508083019250505050505050815260200188888080601f016020809104026020016040519081016040528093929190818152602001838380828437600081840152601f19601f820116905080830192505050505050508152602001868152602001858152602001828152602001600073ffffffffffffffffffffffffffffffffffffffff16815260200160008152602001600060028111156109ed576109ec611824565b5b8152506002600084815260200190815260200160002060008201518160000160006101000a81548173ffffffffffffffffffffffffffffffffffffffff021916908373ffffffffffffffffffffffffffffffffffffffff1602179055506020820151816001019081610a5f9190611ddd565b506040820151816002019081610a759190611ddd565b50606082015181600301556080820151816004015560a0820151816005015560c08201518160060160006101000a81548173ffffffffffffffffffffffffffffffffffffffff021916908373ffffffffffffffffffffffffffffffffffffffff16021790555060e082015181600701556101008201518160080160006101000a81548160ff02191690836002811115610b1157610b10611824565b5b02179055509050503373ffffffffffffffffffffffffffffffffffffffff16827fd0d08457c17900d13f32c385b163851a08861cabc596e79a91258a18a526d6fd8b8b898987604051610b68959493929190611efc565b60405180910390a350979650505050505050565b610b846114c2565b816000811480610b95575060005481115b15610bcc576040517f0e28b8be00000000000000000000000000000000000000000000000000000000815260040160405180910390fd5b60026000848152602001908152602001600020604051806101200160405290816000820160009054906101000a900473ffffffffffffffffffffffffffffffffffffffff1673ffffffffffffffffffffffffffffffffffffffff1673ffffffffffffffffffffffffffffffffffffffff168152602001600182018054610c5190611c0a565b80601f0160208091040260200160405190810160405280929190818152602001828054610c7d90611c0a565b8015610cca5780601f10610c9f57610100808354040283529160200191610cca565b820191906000526020600020905b815481529060010190602001808311610cad57829003601f168201915b50505050508152602001600282018054610ce390611c0a565b80601f0160208091040260200160405190810160405280929190818152602001828054610d0f90611c0a565b8015610d5c5780601f10610d3157610100808354040283529160200191610d5c565b820191906000526020600020905b815481529060010190602001808311610d3f57829003601f168201915b505050505081526020016003820154815260200160048201548152602001600582015481526020016006820160009054906101000a900473ffffffffffffffffffffffffffffffffffffffff1673ffffffffffffffffffffffffffffffffffffffff1673ffffffffffffffffffffffffffffffffffffffff168152602001600782015481526020016008820160009054906101000a900460ff166002811115610e0857610e07611824565b5b6002811115610e1a57610e19611824565b5b81525050915050919050565b6000816000811480610e39575060005481115b15610e70576040517f0e28b8be00000000000000000000000000000000000000000000000000000000815260040160405180910390fd5b600060026000858152602001908152602001600020905060006002811115610e9b57610e9a611824565b5b8160080160009054906101000a900460ff166002811115610ebf57610ebe611824565b5b148015610ecf5750806005015442105b92505050919050565b806000811480610ee9575060005481115b15610f20576040517f0e28b8be00000000000000000000000000000000000000000000000000000000815260040160405180910390fd5b60006002600084815260200190815260200160002090508060000160009054906101000a900473ffffffffffffffffffffffffffffffffffffffff1673ffffffffffffffffffffffffffffffffffffffff163373ffffffffffffffffffffffffffffffffffffffff1614610fc0576040517f85d1f72600000000000000000000000000000000000000000000000000000000815260040160405180910390fd5b60006002811115610fd457610fd3611824565b5b8160080160009054906101000a900460ff166002811115610ff857610ff7611824565b5b1461102f576040517f69b8d0fe00000000000000000000000000000000000000000000000000000000815260040160405180910390fd5b600073ffffffffffffffffffffffffffffffffffffffff168160060160009054906101000a900473ffffffffffffffffffffffffffffffffffffffff1673ffffffffffffffffffffffffffffffffffffffff16146110b9576040517fb49bd67d00000000000000000000000000000000000000000000000000000000815260040160405180910390fd5b60018160080160006101000a81548160ff021916908360028111156110e1576110e0611824565b5b0217905550827f2809c7e17bf978fbc7194c0a694b638c4215e9140cacc6c38ca36010b45697df60405160405180910390a2505050565b7f000000000000000000000000000000000000000000000000000000000000000081565b600160009054906101000a900460ff1615611183576040517fc5f2be5100000000000000000000000000000000000000000000000000000000815260040160405180910390fd5b60018060006101000a81548160ff0219169083151502179055508060008114806111ae575060005481115b156111e5576040517f0e28b8be00000000000000000000000000000000000000000000000000000000815260040160405180910390fd5b6000600260008481526020019081526020016000209050600060028111156112105761120f611824565b5b8160080160009054906101000a900460ff16600281111561123457611233611824565b5b1461126b576040517f69b8d0fe00000000000000000000000000000000000000000000000000000000815260040160405180910390fd5b80600501544210156112a9576040517f0ca00c6100000000000000000000000000000000000000000000000000000000815260040160405180910390fd5b60028160080160006101000a81548160ff021916908360028111156112d1576112d0611824565b5b0217905550600073ffffffffffffffffffffffffffffffffffffffff168160060160009054906101000a900473ffffffffffffffffffffffffffffffffffffffff1673ffffffffffffffffffffffffffffffffffffffff161461142b577f000000000000000000000000000000000000000000000000000000000000000073ffffffffffffffffffffffffffffffffffffffff1663a9059cbb8260000160009054906101000a900473ffffffffffffffffffffffffffffffffffffffff1683600701546040518363ffffffff1660e01b81526004016113b1929190611b3b565b6020604051808303816000875af11580156113d0573d6000803e3d6000fd5b505050506040513d601f19601f820116820180604052508101906113f49190611b0e565b61142a576040517f045c4b0200000000000000000000000000000000000000000000000000000000815260040160405180910390fd5b5b8060060160009054906101000a900473ffffffffffffffffffffffffffffffffffffffff1673ffffffffffffffffffffffffffffffffffffffff16837f4d9113a1377d665eaa1f9168a9c9080f2e488cb820b10149de3d6d2e0f2780c7836007015460405161149a9190611565565b60405180910390a350506000600160006101000a81548160ff02191690831515021790555050565b604051806101200160405280600073ffffffffffffffffffffffffffffffffffffffff1681526020016060815260200160608152602001600081526020016000815260200160008152602001600073ffffffffffffffffffffffffffffffffffffffff168152602001600081526020016000600281111561154657611545611824565b5b81525090565b6000819050919050565b61155f8161154c565b82525050565b600060208201905061157a6000830184611556565b92915050565b600080fd5b600080fd5b6115938161154c565b811461159e57600080fd5b50565b6000813590506115b08161158a565b92915050565b6000602082840312156115cc576115cb611580565b5b60006115da848285016115a1565b91505092915050565b600080604083850312156115fa576115f9611580565b5b6000611608858286016115a1565b9250506020611619858286016115a1565b9150509250929050565b600080fd5b600080fd5b600080fd5b60008083601f84011261164857611647611623565b5b8235905067ffffffffffffffff81111561166557611664611628565b5b6020830191508360018202830111156116815761168061162d565b5b9250929050565b600080600080600080600060a0888a0312156116a7576116a6611580565b5b600088013567ffffffffffffffff8111156116c5576116c4611585565b5b6116d18a828b01611632565b9750975050602088013567ffffffffffffffff8111156116f4576116f3611585565b5b6117008a828b01611632565b955095505060406117138a828b016115a1565b93505060606117248a828b016115a1565b92505060806117358a828b016115a1565b91505092959891949750929550565b600073ffffffffffffffffffffffffffffffffffffffff82169050919050565b600061176f82611744565b9050919050565b61177f81611764565b82525050565b600081519050919050565b600082825260208201905092915050565b60005b838110156117bf5780820151818401526020810190506117a4565b60008484015250505050565b6000601f19601f8301169050919050565b60006117e782611785565b6117f18185611790565b93506118018185602086016117a1565b61180a816117cb565b840191505092915050565b61181e8161154c565b82525050565b7f4e487b7100000000000000000000000000000000000000000000000000000000600052602160045260246000fd5b6003811061186457611863611824565b5b50565b600081905061187582611853565b919050565b600061188582611867565b9050919050565b6118958161187a565b82525050565b6000610120830160008301516118b46000860182611776565b50602083015184820360208601526118cc82826117dc565b915050604083015184820360408601526118e682826117dc565b91505060608301516118fb6060860182611815565b50608083015161190e6080860182611815565b5060a083015161192160a0860182611815565b5060c083015161193460c0860182611776565b5060e083015161194760e0860182611815565b5061010083015161195c61010086018261188c565b508091505092915050565b60006020820190508181036000830152611981818461189b565b905092915050565b60008115159050919050565b61199e81611989565b82525050565b60006020820190506119b96000830184611995565b92915050565b6000819050919050565b60006119e46119df6119da84611744565b6119bf565b611744565b9050919050565b60006119f6826119c9565b9050919050565b6000611a08826119eb565b9050919050565b611a18816119fd565b82525050565b6000602082019050611a336000830184611a0f565b92915050565b7f4e487b7100000000000000000000000000000000000000000000000000000000600052601160045260246000fd5b6000611a738261154c565b9150611a7e8361154c565b9250828201905080821115611a9657611a95611a39565b5b92915050565b611aa581611764565b82525050565b6000606082019050611ac06000830186611a9c565b611acd6020830185611a9c565b611ada6040830184611556565b949350505050565b611aeb81611989565b8114611af657600080fd5b50565b600081519050611b0881611ae2565b92915050565b600060208284031215611b2457611b23611580565b5b6000611b3284828501611af9565b91505092915050565b6000604082019050611b506000830185611a9c565b611b5d6020830184611556565b9392505050565b6000611b6f8261154c565b91507fffffffffffffffffffffffffffffffffffffffffffffffffffffffffffffffff8203611ba157611ba0611a39565b5b600182019050919050565b7f4e487b7100000000000000000000000000000000000000000000000000000000600052604160045260246000fd5b7f4e487b7100000000000000000000000000000000000000000000000000000000600052602260045260246000fd5b60006002820490506001821680611c2257607f821691505b602082108103611c3557611c34611bdb565b5b50919050565b60008190508160005260206000209050919050565b60006020601f8301049050919050565b600082821b905092915050565b600060088302611c9d7fffffffffffffffffffffffffffffffffffffffffffffffffffffffffffffffff82611c60565b611ca78683611c60565b95508019841693508086168417925050509392505050565b6000611cda611cd5611cd08461154c565b6119bf565b61154c565b9050919050565b6000819050919050565b611cf483611cbf565b611d08611d0082611ce1565b848454611c6d565b825550505050565b600090565b611d1d611d10565b611d28818484611ceb565b505050565b5b81811015611d4c57611d41600082611d15565b600181019050611d2e565b5050565b601f821115611d9157611d6281611c3b565b611d6b84611c50565b81016020851015611d7a578190505b611d8e611d8685611c50565b830182611d2d565b50505b505050565b600082821c905092915050565b6000611db460001984600802611d96565b1980831691505092915050565b6000611dcd8383611da3565b9150826002028217905092915050565b611de682611785565b67ffffffffffffffff811115611dff57611dfe611bac565b5b611e098254611c0a565b611e14828285611d50565b600060209050601f831160018114611e475760008415611e35578287015190505b611e3f8582611dc1565b865550611ea7565b601f198416611e5586611c3b565b60005b82811015611e7d57848901518255600182019150602085019450602081019050611e58565b86831015611e9a5784890151611e96601f891682611da3565b8355505b6001600288020188555050505b505050505050565b600082825260208201905092915050565b82818337600083830152505050565b6000611edb8385611eaf565b9350611ee8838584611ec0565b611ef1836117cb565b840190509392505050565b60006080820190508181036000830152611f17818789611ecf565b9050611f266020830186611556565b611f336040830185611556565b611f406060830184611556565b969550505050505056fea26469706673582212202f19370fe8aae5f8633b2e1584cf4786735472fd0c50478a3dc50e86349e4de364736f6c634300081c0033",
  "linkReferences": {},
  "deployedLinkReferences": {}
}