{
  "_format": "hh-sol-artifact-1",
  "contractName": "TokenAuctionHouse",
  "sourceName": "contracts/TokenAuctionHouse.sol",
  "abi": [
    {
      "inputs": [
        {
          "internalType": "address",
          "name": "tokenAddress",
          "type": "address"
        }
      ],
      "stateMutability": "nonpayable",
      "type": "constructor"
    },
    {
      "inputs": [],
      "name": "AuctionEnded",
      "type": "error"
    },
    {
      "inputs": [],
      "name": "AuctionNotActive",
      "type": "error"
    },
    {
      "inputs": [],
      "name": "AuctionNotFound",
      "type": "error"
    },
    {
      "inputs": [],
      "name": "AuctionStillActive",
      "type": "error"
    },
    {
      "inputs": [
        {
          "internalType": "uint256",
          "name": "requiredBid",
          "type": "uint256"
        }
      ],
      "name": "BidTooLow",
      "type": "error"
    },
    {
      "inputs": [],
      "name": "EmptyTitle",
      "type": "error"
    },
    {
      "inputs": [],
      "name": "ExistingBid",
      "type": "error"
    },
    {
      "inputs": [],
      "name": "InvalidDuration",
      "type": "error"
    },
    {
      "inputs": [],
      "name": "InvalidIncrement",
      "type": "error"
    },
    {
      "inputs": [],
      "name": "InvalidTokenAddress",
      "type": "error"
    },
    {
      "inputs": [],
      "name": "OnlySeller",
      "type": "error"
    },
    {
      "inputs": [],
      "name": "ReentrancyDetected",
      "type": "error"
    },
    {
      "inputs": [],
      "name": "SellerCannotBid",
      "type": "error"
    },
    {
      "inputs": [],
      "name": "TokenTransferFailed",
      "type": "error"
    },
    {
      "anonymous": false,
      "inputs": [
        {
          "indexed": true,
          "internalType": "uint256",
          "name": "auctionId",
          "type": "uint256"
        }
      ],
      "name": "AuctionCancelled",
      "type": "event"
    },
    {
      "anonymous": false,
      "inputs": [
        {
          "indexed": true,
          "internalType": "uint256",
          "name": "auctionId",
          "type": "uint256"
        },
        {
          "indexed": true,
          "internalType": "address",
          "name": "seller",
          "type": "address"
        },
        {
          "indexed": false,
          "internalType": "string",
          "name": "title",
          "type": "string"
        },
        {
          "indexed": false,
          "internalType": "uint256",
          "name": "startingBid",
          "type": "uint256"
        },
        {
          "indexed": false,
          "internalType": "uint256",
          "name": "minIncrement",
          "type": "uint256"
        },
        {
          "indexed": false,
          "internalType": "uint256",
          "name": "endTime",
          "type": "uint256"
        }
      ],
      "name": "AuctionCreated",
      "type": "event"
    },
    {
      "anonymous": false,
      "inputs": [
        {
          "indexed": true,
          "internalType": "uint256",
          "name": "auctionId",
          "type": "uint256"
        },
        {
          "indexed": true,
          "internalType": "address",
          "name": "winner",
          "type": "address"
        },
        {
          "indexed": false,
          "internalType": "uint256",
          "name": "winningBid",
          "type": "uint256"
        }
      ],
      "name": "AuctionFinalized",
      "type": "event"
    },
    {
      "anonymous": false,
      "inputs": [
        {
          "indexed": true,
          "internalType": "uint256",
          "name": "auctionId",
          "type": "uint256"
        },
        {
          "indexed": true,
          "internalType": "address",
          "name": "bidder",
          "type": "address"
        },
        {
          "indexed": false,
          "internalType": "uint256",
          "name": "amount",
          "type": "uint256"
        }
      ],
      "name": "BidPlaced",
      "type": "event"
    },
    {
      "anonymous": false,
      "inputs": [
        {
          "indexed": true,
          "internalType": "uint256",
          "name": "auctionId",
          "type": "uint256"
        },
        {
          "indexed": true,
          "internalType": "address",
          "name": "bidder",
          "type": "address"
        },
        {
          "indexed": false,
          "internalType": "uint256",
          "name": "amount",
          "type": "uint256"
        }
      ],
      "name": "PreviousBidRefunded",
      "type": "event"
    },
    {
      "inputs": [],
      "name": "auctionCount",
      "outputs": [
        {
          "internalType": "uint256",
          "name": "",
          "type": "uint256"
        }
      ],
      "stateMutability": "view",
      "type": "function"
    },
    {
      "inputs": [],
      "name": "bidToken",
      "outputs": [
        {
          "internalType": "contract IERC20",
          "name": "",
          "type": "address"
        }
      ],
      "stateMutability": "view",
      "type": "function"
    },
    {
      "inputs": [
        {
          "internalType": "uint256",
          "name": "auctionId",
          "type": "uint256"
        }
      ],
      "name": "cancelAuction",
      "outputs": [],
      "stateMutability": "nonpayable",
      "type": "function"
    },
    {
      "inputs": [
        {
          "internalType": "string",
          "name": "title",
          "type": "string"
        },
        {
          "internalType": "string",
          "name": "description",
          "type": "string"
        },
        {
          "internalType": "uint256",
          "name": "startingBid",
          "type": "uint256"
        },
        {
          "internalType": "uint256",
          "name": "minIncrement",
          "type": "uint256"
        },
        {
          "internalType": "uint256",
          "name": "durationSeconds",
          "type": "uint256"
        }
      ],
      "name": "createAuction",
      "outputs": [
        {
          "internalType": "uint256",
          "name": "auctionId",
          "type": "uint256"
        }
      ],
      "stateMutability": "nonpayable",
      "type": "function"
    },
    {
      "inputs": [
        {
          "internalType": "uint256",
          "name": "auctionId",
          "type": "uint256"
        }
      ],
      "name": "finalizeAuction",
      "outputs": [],
      "stateMutability": "nonpayable",
      "type": "function"
    },
    {
      "inputs": [
        {
          "internalType": "uint256",
          "name": "auctionId",
          "type": "uint256"
        }
      ],
      "name": "getAuction",
      "outputs": [
        {
          "components": [
            {
              "internalType": "address",
              "name": "seller",
              "type": "address"
            },
            {
              "internalType": "string",
              "name": "title",
              "type": "string"
            },
            {
              "internalType": "string",
              "name": "description",
              "type": "string"
            },
            {
              "internalType": "uint256",
              "name": "startingBid",
              "type": "uint256"
            },
            {
              "internalType": "uint256",
              "name": "minIncrement",
              "type": "uint256"
            },
            {
              "internalType": "uint256",
              "name": "endTime",
              "type": "uint256"
            },
            {
              "internalType": "address",
              "name": "highestBidder",
              "type": "address"
            },
            {
              "internalType": "uint256",
              "name": "highestBid",
              "type": "uint256"
            },
            {
              "internalType": "enum TokenAuctionHouse.AuctionStatus",
              "name": "status",
              "type": "uint8"
            }
          ],
          "internalType": "struct TokenAuctionHouse.Auction",
          "name": "",
          "type": "tuple"
        }
      ],
      "stateMutability": "view",
      "type": "function"
    },
    {
      "inputs": [
        {
          "internalType": "uint256",
          "name": "auctionId",
          "type": "uint256"
        }
      ],
      "name": "getRequiredBid",
      "outputs": [
        {
          "internalType": "uint256",
          "name": "",
          "type": "uint256"
        }
      ],
      "stateMutability": "view",
      "type": "function"
    },
    {
      "inputs": [
        {
          "internalType": "uint256",
          "name": "auctionId",
          "type": "uint256"
        }
      ],
      "name": "isActive",
      "outputs": [
        {
          "internalType": "bool",
          "name": "",
          "type": "bool"
        }
      ],
      "stateMutability": "view",
      "type": "function"
    },
    {
      "inputs": [
        {
          "internalType": "uint256",
          "name": "auctionId",
          "type": "uint256"
        },
        {
          "internalType": "uint256",
          "name": "amount",
          "type": "uint256"
        }
      ],
      "name": "placeBid",
      "outputs": [],
      "stateMutability": "nonpayable",
      "type": "function"
    }
  ],
  "bytecode": "0x60a060405234801561001057600080fd5b5060405161130638038061130683398101604081905261002f91610067565b6001600160a01b03811661005657604051630f58058360e11b815260040160405180910390fd5b6001600160a01b0316608052610097565b60006020828403121561007957600080fd5b81516001600160a01b038116811461009057600080fd5b9392505050565b60805161123f6100c76000396000818161014a015281816103730152818161045a0152610c60015261123f6000f3fe608060405234801561001057600080fd5b50600436106100935760003560e01c806378bd79351161006657806378bd7935146100ef57806382afd23b1461010f57806396b5a75514610132578063dfafd4fd14610145578063e80838631461018457600080fd5b80632ad7157314610098578063493d5f02146100b457806357c90de5146100c75780635800eafa146100dc575b600080fd5b6100a160005481565b6040519081526020015b60405180910390f35b6100a16100c2366004610db4565b610197565b6100da6100d5366004610dcd565b610209565b005b6100a16100ea366004610e38565b610573565b6101026100fd366004610db4565b6107d9565b6040516100ab9190610f42565b61012261011d366004610db4565b6109d3565b60405190151581526020016100ab565b6100da610140366004610db4565b610a3f565b61016c7f000000000000000000000000000000000000000000000000000000000000000081565b6040516001600160a01b0390911681526020016100ab565b6100da610192366004610db4565b610b48565b6000818015806101a8575060005481115b156101c6576040516307145c5f60e11b815260040160405180910390fd5b600083815260026020526040812060078101549091036101eb57600301549150610203565b806004015481600701546101ff919061100f565b9250505b50919050565b60015460ff161561022d5760405163c5f2be5160e01b815260040160405180910390fd5b6001805460ff19168117905581801580610248575060005481115b15610266576040516307145c5f60e11b815260040160405180910390fd5b600083815260026020526040812090600882015460ff16600281111561028e5761028e610f0a565b146102ac576040516334dc687f60e11b815260040160405180910390fd5b806005015442106102d05760405163283a4a6160e21b815260040160405180910390fd5b80546001600160a01b031633036102fa5760405163ef02588960e01b815260040160405180910390fd5b60008160070154600014610321578160040154826007015461031c919061100f565b610327565b81600301545b905080841015610351576040516331173c6560e01b81526004810182905260240160405180910390fd5b6040516323b872dd60e01b8152336004820152306024820152604481018590527f00000000000000000000000000000000000000000000000000000000000000006001600160a01b0316906323b872dd906064016020604051808303816000875af11580156103c4573d6000803e3d6000fd5b505050506040513d601f19601f820116820180604052508101906103e89190611028565b6104055760405163022e258160e11b815260040160405180910390fd5b6006820180546007840180546001600160a01b0319831633179093558690556001600160a01b03169081156105295760405163a9059cbb60e01b81526001600160a01b038381166004830152602482018390527f0000000000000000000000000000000000000000000000000000000000000000169063a9059cbb906044016020604051808303816000875af11580156104a3573d6000803e3d6000fd5b505050506040513d601f19601f820116820180604052508101906104c79190611028565b6104e45760405163022e258160e11b815260040160405180910390fd5b816001600160a01b0316877f07cd034a4d5cadcb2725848053fda1ce3d7461d6cb8f30e450f54c0f8449d0968360405161052091815260200190565b60405180910390a35b604051868152339088907f0e54eff26401bf69b81b26f60bd85ef47f5d85275c1d268d84f68d6897431c479060200160405180910390a350506001805460ff191690555050505050565b6000868103610595576040516352ddcdef60e11b815260040160405180910390fd5b61012c8210156105b857604051637616640160e01b815260040160405180910390fd5b826000036105d957604051635899c0df60e11b815260040160405180910390fd5b60008081546105e790611051565b9182905550905060006105fa834261100f565b9050604051806101200160405280336001600160a01b031681526020018a8a8080601f016020809104026020016040519081016040528093929190818152602001838380828437600092019190915250505090825250604080516020601f8b0181900481028201810190925289815291810191908a908a908190840183828082843760009201829052509385525050506020820188905260408201879052606082018490526080820181905260a0820181905260c0909101526000838152600260209081526040909120825181546001600160a01b0319166001600160a01b039091161781559082015160018201906106f39082611103565b50604082015160028201906107089082611103565b50606082015160038201556080820151600482015560a0820151600582015560c08201516006820180546001600160a01b0319166001600160a01b0390921691909117905560e0820151600782015561010082015160088201805460ff1916600183600281111561077b5761077b610f0a565b0217905550905050336001600160a01b0316827fd0d08457c17900d13f32c385b163851a08861cabc596e79a91258a18a526d6fd8b8b8989876040516107c59594939291906111c2565b60405180910390a350979650505050505050565b6107e1610d46565b818015806107f0575060005481115b1561080e576040516307145c5f60e11b815260040160405180910390fd5b6000838152600260209081526040918290208251610120810190935280546001600160a01b03168352600181018054919284019161084b90611080565b80601f016020809104026020016040519081016040528092919081815260200182805461087790611080565b80156108c45780601f10610899576101008083540402835291602001916108c4565b820191906000526020600020905b8154815290600101906020018083116108a757829003601f168201915b505050505081526020016002820180546108dd90611080565b80601f016020809104026020016040519081016040528092919081815260200182805461090990611080565b80156109565780601f1061092b57610100808354040283529160200191610956565b820191906000526020600020905b81548152906001019060200180831161093957829003601f168201915b505050918352505060038201546020820152600482015460408201526005820154606082015260068201546001600160a01b03166080820152600782015460a0820152600882015460c09091019060ff1660028111156109b8576109b8610f0a565b60028111156109c9576109c9610f0a565b9052509392505050565b6000818015806109e4575060005481115b15610a02576040516307145c5f60e11b815260040160405180910390fd5b600083815260026020526040812090600882015460ff166002811115610a2a57610a2a610f0a565b1480156101ff57506005015442109392505050565b80801580610a4e575060005481115b15610a6c576040516307145c5f60e11b815260040160405180910390fd5b600082815260026020526040902080546001600160a01b03163314610aa4576040516342e8fb9360e11b815260040160405180910390fd5b6000600882015460ff166002811115610abf57610abf610f0a565b14610add576040516334dc687f60e11b815260040160405180910390fd5b60068101546001600160a01b031615610b095760405163b49bd67d60e01b815260040160405180910390fd5b60088101805460ff1916600117905560405183907f2809c7e17bf978fbc7194c0a694b638c4215e9140cacc6c38ca36010b45697df90600090a2505050565b60015460ff1615610b6c5760405163c5f2be5160e01b815260040160405180910390fd5b6001805460ff19168117905580801580610b87575060005481115b15610ba5576040516307145c5f60e11b815260040160405180910390fd5b600082815260026020526040812090600882015460ff166002811115610bcd57610bcd610f0a565b14610beb576040516334dc687f60e11b815260040160405180910390fd5b8060050154421015610c1057604051630ca00c6160e01b815260040160405180910390fd5b60088101805460ff1916600217905560068101546001600160a01b031615610cec578054600782015460405163a9059cbb60e01b81526001600160a01b03928316600482015260248101919091527f00000000000000000000000000000000000000000000000000000000000000009091169063a9059cbb906044016020604051808303816000875af1158015610cab573d6000803e3d6000fd5b505050506040513d601f19601f82011682018060405250810190610ccf9190611028565b610cec5760405163022e258160e11b815260040160405180910390fd5b600681015460078201546040519081526001600160a01b039091169084907f4d9113a1377d665eaa1f9168a9c9080f2e488cb820b10149de3d6d2e0f2780c79060200160405180910390a350506001805460ff1916905550565b60405180610120016040528060006001600160a01b03168152602001606081526020016060815260200160008152602001600081526020016000815260200160006001600160a01b031681526020016000815260200160006002811115610daf57610daf610f0a565b905290565b600060208284031215610dc657600080fd5b5035919050565b60008060408385031215610de057600080fd5b50508035926020909101359150565b60008083601f840112610e0157600080fd5b50813567ffffffffffffffff811115610e1957600080fd5b602083019150836020828501011115610e3157600080fd5b9250929050565b600080600080600080600060a0888a031215610e5357600080fd5b873567ffffffffffffffff811115610e6a57600080fd5b610e768a828b01610def565b909850965050602088013567ffffffffffffffff811115610e9657600080fd5b610ea28a828b01610def565b989b979a50986040810135976060820135975060809091013595509350505050565b6000815180845260005b81811015610eea57602081850181015186830182015201610ece565b506000602082860101526020601f19601f83011685010191505092915050565b634e487b7160e01b600052602160045260246000fd5b60038110610f3e57634e487b7160e01b600052602160045260246000fd5b9052565b60208152610f5c6020820183516001600160a01b03169052565b600060208301516101206040840152610f79610140840182610ec4565b90506040840151601f19848303016060850152610f968282610ec4565b91505060608401516080840152608084015160a084015260a084015160c084015260c0840151610fd160e08501826001600160a01b03169052565b5060e0840151610100840152610100840151610ff1610120850182610f20565b509392505050565b634e487b7160e01b600052601160045260246000fd5b8082018082111561102257611022610ff9565b92915050565b60006020828403121561103a57600080fd5b8151801515811461104a57600080fd5b9392505050565b60006001820161106357611063610ff9565b5060010190565b634e487b7160e01b600052604160045260246000fd5b600181811c9082168061109457607f821691505b60208210810361020357634e487b7160e01b600052602260045260246000fd5b601f8211156110fe57806000526020600020601f840160051c810160208510156110db5750805b601f840160051c820191505b818110156110fb57600081556001016110e7565b50505b505050565b815167ffffffffffffffff81111561111d5761111d61106a565b6111318161112b8454611080565b846110b4565b6020601f821160018114611165576000831561114d5750848201515b600019600385901b1c1916600184901b1784556110fb565b600084815260208120601f198516915b828110156111955787850151825560209485019460019092019101611175565b50848210156111b35786840151600019600387901b60f8161c191681555b50505050600190811b01905550565b60808152846080820152848660a0830137600060a08683010152600060a0601f19601f8801168301019050846020830152836040830152826060830152969550505050505056fea2646970667358221220f328aec3d4d3071fcae253bc51dd7a51675c37a19f17ace320b706363581149364736f6c634300081c0033",
  "linkReferences": {},
  "deployedLinkReferences": {}
}