{
  "_format": "hh-sol-artifact-1",
  "contractName": "AuctionToken",
  "sourceName": "contracts/AuctionToken.sol",
  "abi": [
    {
      "inputs": [
        {
          "internalType": "uint256",
          "name": "initialSupply",
          "type": "uint256"
        }
      ],
      "stateMutability": "nonpayable",
      "type": "constructor"
    },
    {
      "inputs": [
        {
          "internalType": "address",
          "name": "spender",
          "type": "address"
        },
        {
          "internalType": "uint256",
          "name": "allowance",
          "type": "uint256"
        },
        {
          "internalType": "uint256",
          "name": "needed",
          "type": "uint256"
        }
      ],
      "name": "ERC20InsufficientAllowance",
      "type": "error"
    },
    {
      "inputs": [
        {
          "internalType": "address",
          "name": "sender",
          "type": "address"
        },
        {
          "internalType": "uint256",
          "name": "balance",
          "type": "uint256"
        },
        {
          "internalType": "uint256",
          "name": "needed",
          "type": "uint256"
        }
      ],
      "name": "ERC20InsufficientBalance",
      "type": "error"
    },
    {
      "inputs": [
        {
          "internalType": "address",
          "name": "approver",
          "type": "address"
        }
      ],
      "name": "ERC20InvalidApprover",
      "type": "error"
    },
    {
      "inputs": [
        {
          "internalType": "address",
          "name": "receiver",
          "type": "address"
        }
      ],
      "name": "ERC20InvalidReceiver",
      "type": "error"
    },
    {
      "inputs": [
        {
          "internalType": "address",
          "name": "sender",
          "type": "address"
        }
      ],
      "name": "ERC20InvalidSender",
      "type": "error"
    },
    {
      "inputs": [
        {
          "internalType": "address",
          "name": "spender",
          "type": "address"
        }
      ],
      "name": "ERC20InvalidSpender",
      "type": "error"
    },
    {
      "inputs": [],
      "name": "FaucetCooldownActive",
      "type": "error"
    },
    {
      "inputs": [
        {
          "internalType": "address",
          "name": "owner",
          "type": "address"
        }
      ],
      "name": "OwnableInvalidOwner",
      "type": "error"
    },
    {
      "inputs": [
        {
          "internalType": "address",
          "name": "account",
          "type": "address"
        }
      ],
      "name": "OwnableUnauthorizedAccount",
      "type": "error"
    },
    {
      "anonymous": false,
      "inputs": [
        {
          "indexed": true,
          "internalType": "address",
          "name": "owner",
          "type": "address"
        },
        {
          "indexed": true,
          "internalType": "address",
          "name": "spender",
          "type": "address"
        },
        {
          "indexed": false,
          "internalType": "uint256",
          "name": "value",
          "type": "uint256"
        }
      ],
      "name": "Approval",
      "type": "event"
    },
    {
      "anonymous": false,
      "inputs": [
        {
          "indexed": false,
          "internalType": "uint256",
          "name": "oldAmount",
          "type": "uint256"
        },
        {
          "indexed": false,
          "internalType": "uint256",
          "name": "newAmount",
          "type": "uint256"
        }
      ],
      "name": "FaucetAmountUpdated",
      "type": "event"
    },
    {
      "anonymous": false,
      "inputs": [
        {
          "indexed": true,
          "internalType": "address",
          "name": "previousOwner",
          "type": "address"
        },
        {
          "indexed": true,
          "internalType": "address",
          "name": "newOwner",
          "type": "address"
        }
      ],
      "name": "OwnershipTransferred",
      "type": "event"
    },
    {
      "anonymous": false,
      "inputs": [
        {
          "indexed": true,
          "internalType": "address",
          "name": "from",
          "type": "address"
        },
        {
          "indexed": true,
          "internalType": "address",
          "name": "to",
          "type": "address"
        },
        {
          "indexed": false,
          "internalType": "uint256",
          "name": "value",
          "type": "uint256"
        }
      ],
      "name": "Transfer",
      "type": "event"
    },
    {
      "inputs": [
        {
          "internalType": "address",
          "name": "owner",
          "type": "address"
        },
        {
          "internalType": "address",
          "name": "spender",
          "type": "address"
        }
      ],
      "name": "allowance",
      "outputs": [
        {
          "internalType": "uint256",
          "name": "",
          "type": "uint256"
        }
      ],
      "stateMutability": "view",
      "type": "function"
    },
    {
      "inputs": [
        {
          "internalType": "address",
          "name": "spender",
          "type": "address"
        },
        {
          "internalType": "uint256",
          "name": "value",
          "type": "uint256"
        }
      ],
      "name": "approve",
      "outputs": [
        {
          "internalType": "bool",
          "name": "",
          "type": "bool"
        }
      ],
      "stateMutability": "nonpayable",
      "type": "function"
    },
    {
      "inputs": [
        {
          "internalType": "address",
          "name": "account",
          "type": "address"
        }
      ],
      "name": "balanceOf",
      "outputs": [
        {
          "internalType": "uint256",
          "name": "",
          "type": "uint256"
        }
      ],
      "stateMutability": "view",
      "type": "function"
    },
    {
      "inputs": [],
      "name": "claimFromFaucet",
      "outputs": [],
      "stateMutability": "nonpayable",
      "type": "function"
    },
    {
      "inputs": [],
      "name": "decimals",
      "outputs": [
        {
          "internalType": "uint8",
          "name": "",
          "type": "uint8"
        }
      ],
      "stateMutability": "view",
      "type": "function"
    },
    {
      "inputs": [],
      "name": "faucetAmount",
      "outputs": [
        {
          "internalType": "uint256",
          "name": "",
          "type": "uint256"
        }
      ],
      "stateMutability": "view",
      "type": "function"
    },
    {
      "inputs": [
        {
          "internalType": "address",
          "name": "",
          "type": "address"
        }
      ],
      "name": "lastClaimedAt",
      "outputs": [
        {
          "internalType": "uint256",
          "name": "",
          "type": "uint256"
        }
      ],
      "stateMutability": "view",
      "type": "function"
    },
    {
      "inputs": [
        {
          "internalType": "address",
          "name": "to",
          "type": "address"
        },
        {
          "internalType": "uint256",
          "name": "amount",
          "type": "uint256"
        }
      ],
      "name": "mint",
      "outputs": [],
      "stateMutability": "nonpayable",
      "type": "function"
    },
    {
      "inputs": [],
      "name": "name",
      "outputs": [
        {
          "internalType": "string",
          "name": "",
          "type": "string"
        }
      ],
      "stateMutability": "view",
      "type": "function"
    },
    {
      "inputs": [],
      "name": "owner",
      "outputs": [
        {
          "internalType": "address",
          "name": "",
          "type": "address"
        }
      ],
      "stateMutability": "view",
      "type": "function"
    },
    {
      "inputs": [],
      "name": "renounceOwnership",
      "outputs": [],
      "stateMutability": "nonpayable",
      "type": "function"
    },
    {
      "inputs": [
        {
          "internalType": "uint256",
          "name": "newAmount",
          "type": "uint256"
        }
      ],
      "name": "setFaucetAmount",
      "outputs": [],
      "stateMutability": "nonpayable",
      "type": "function"
    },
    {
      "inputs": [],
      "name": "symbol",
      "outputs": [
        {
          "internalType": "string",
          "name": "",
          "type": "string"
        }
      ],
      "stateMutability": "view",
      "type": "function"
    },
    {
      "inputs": [],
      "name": "totalSupply",
      "outputs": [
        {
          "internalType": "uint256",
          "name": "",
          "type": "uint256"
        }
      ],
      "stateMutability": "view",
      "type": "function"
    },
    {
      "inputs": [
        {
          "internalType": "address",
          "name": "to",
          "type": "address"
        },
        {
          "internalType": "uint256",
          "name": "value",
          "type": "uint256"
        }
      ],
      "name": "transfer",
      "outputs": [
        {
          "internalType": "bool",
          "name": "",
          "type": "bool"
        }
      ],
      "stateMutability": "nonpayable",
      "type": "function"
    },
    {
      "inputs": [
        {
          "internalType": "address",
          "name": "from",
          "type": "address"
        },
        {
          "internalType": "address",
          "name": "to",
          "type": "address"
        },
        {
          "internalType": "uint256",
          "name": "value",
          "type": "uint256"
        }
      ],
      "name": "transferFrom",
      "outputs": [
        {
          "internalType": "bool",
          "name": "",
          "type": "bool"
        }
      ],
      "stateMutability": "nonpayable",
      "type": "function"
    },
    {
      "inputs": [
        {
          "internalType": "address",
          "name": "newOwner",
          "type": "address"
        }
      ],
      "name": "transferOwnership",
      "outputs": [],
      "stateMutability": "nonpayable",
      "type": "function"
    }
  ],
  "bytecode": "0x6080604052683635c9adc5dea0000060065534801561001d57600080fd5b50604051610e4b380380610e4b83398101604081905261003c91610297565b3360405180604001604052806005815260200164416c616e6960d81b81525060405180604001604052806005815260200164414c414e4960d81b8152508160039081610088919061034f565b506004610095828261034f565b5050506001600160a01b0381166100c757604051631e4fbdf760e01b8152600060048201526024015b60405180910390fd5b6100d0816100e1565b506100db3382610133565b50610434565b600580546001600160a01b038381166001600160a01b0319831681179093556040519116919082907f8be0079c531659141344cd1fd0a4f28419497f9722a3daafe3b4186f6b6457e090600090a35050565b6001600160a01b03821661015d5760405163ec442f0560e01b8152600060048201526024016100be565b6101696000838361016d565b5050565b6001600160a01b03831661019857806002600082825461018d919061040d565b9091555061020a9050565b6001600160a01b038316600090815260208190526040902054818110156101eb5760405163391434e360e21b81526001600160a01b038516600482015260248101829052604481018390526064016100be565b6001600160a01b03841660009081526020819052604090209082900390555b6001600160a01b03821661022657600280548290039055610245565b6001600160a01b03821660009081526020819052604090208054820190555b816001600160a01b0316836001600160a01b03167fddf252ad1be2c89b69c2b068fc378daa952ba7f163c4a11628f55a4df523b3ef8360405161028a91815260200190565b60405180910390a3505050565b6000602082840312156102a957600080fd5b5051919050565b634e487b7160e01b600052604160045260246000fd5b600181811c908216806102da57607f821691505b6020821081036102fa57634e487b7160e01b600052602260045260246000fd5b50919050565b601f82111561034a57806000526020600020601f840160051c810160208510156103275750805b601f840160051c820191505b818110156103475760008155600101610333565b50505b505050565b81516001600160401b03811115610368576103686102b0565b61037c8161037684546102c6565b84610300565b6020601f8211600181146103b057600083156103985750848201515b600019600385901b1c1916600184901b178455610347565b600084815260208120601f198516915b828110156103e057878501518255602094850194600190920191016103c0565b50848210156103fe5786840151600019600387901b60f8161c191681555b50505050600190811b01905550565b8082018082111561042e57634e487b7160e01b600052601160045260246000fd5b92915050565b610a08806104436000396000f3fe608060405234801561001057600080fd5b506004361061010b5760003560e01c8063715018a6116100a25780639c281430116100715780639c28143014610221578063a9059cbb1461022a578063dd62ed3e1461023d578063f2fde38b14610276578063fbbfb7821461028957600080fd5b8063715018a6146101e357806381d2fd9c146101eb5780638da5cb5b146101fe57806395d89b411461021957600080fd5b806326a40c99116100de57806326a40c9914610176578063313ce5671461019657806340c10f19146101a557806370a08231146101ba57600080fd5b806306fdde0314610110578063095ea7b31461012e57806318160ddd1461015157806323b872dd14610163575b600080fd5b610118610291565b6040516101259190610838565b60405180910390f35b61014161013c3660046108a2565b610323565b6040519015158152602001610125565b6002545b604051908152602001610125565b6101416101713660046108cc565b61033d565b610155610184366004610909565b60076020526000908152604090205481565b60405160128152602001610125565b6101b86101b33660046108a2565b610361565b005b6101556101c8366004610909565b6001600160a01b031660009081526020819052604090205490565b6101b8610377565b6101b86101f936600461092b565b61038b565b6005546040516001600160a01b039091168152602001610125565b6101186103d8565b61015560065481565b6101416102383660046108a2565b6103e7565b61015561024b366004610944565b6001600160a01b03918216600090815260016020908152604080832093909416825291909152205490565b6101b8610284366004610909565b6103f5565b6101b8610438565b6060600380546102a090610977565b80601f01602080910402602001604051908101604052809291908181526020018280546102cc90610977565b80156103195780601f106102ee57610100808354040283529160200191610319565b820191906000526020600020905b8154815290600101906020018083116102fc57829003601f168201915b5050505050905090565b600033610331818585610494565b60019150505b92915050565b60003361034b8582856104a6565b610356858585610525565b506001949350505050565b610369610584565b61037382826105b1565b5050565b61037f610584565b61038960006105e7565b565b610393610584565b600680549082905560408051828152602081018490527fd5c900865c3981f605a346229a46710bb52560a90e461926816f770cb1b4549b910160405180910390a15050565b6060600480546102a090610977565b600033610331818585610525565b6103fd610584565b6001600160a01b03811661042c57604051631e4fbdf760e01b8152600060048201526024015b60405180910390fd5b610435816105e7565b50565b3360009081526007602052604090205461045590620151806109b1565b421015610475576040516321767de360e21b815260040160405180910390fd5b33600081815260076020526040902042905560065461038991906105b1565b6104a18383836001610639565b505050565b6001600160a01b0383811660009081526001602090815260408083209386168352929052205460001981101561051f578181101561051057604051637dc7a0d960e11b81526001600160a01b03841660048201526024810182905260448101839052606401610423565b61051f84848484036000610639565b50505050565b6001600160a01b03831661054f57604051634b637e8f60e11b815260006004820152602401610423565b6001600160a01b0382166105795760405163ec442f0560e01b815260006004820152602401610423565b6104a183838361070e565b6005546001600160a01b031633146103895760405163118cdaa760e01b8152336004820152602401610423565b6001600160a01b0382166105db5760405163ec442f0560e01b815260006004820152602401610423565b6103736000838361070e565b600580546001600160a01b038381166001600160a01b0319831681179093556040519116919082907f8be0079c531659141344cd1fd0a4f28419497f9722a3daafe3b4186f6b6457e090600090a35050565b6001600160a01b0384166106635760405163e602df0560e01b815260006004820152602401610423565b6001600160a01b03831661068d57604051634a1406b160e11b815260006004820152602401610423565b6001600160a01b038085166000908152600160209081526040808320938716835292905220829055801561051f57826001600160a01b0316846001600160a01b03167f8c5be1e5ebec7d5bd14f71427d1e84f3dd0314c0f7b2291e5b200ac8c7c3b9258460405161070091815260200190565b60405180910390a350505050565b6001600160a01b03831661073957806002600082825461072e91906109b1565b909155506107ab9050565b6001600160a01b0383166000908152602081905260409020548181101561078c5760405163391434e360e21b81526001600160a01b03851660048201526024810182905260448101839052606401610423565b6001600160a01b03841660009081526020819052604090209082900390555b6001600160a01b0382166107c7576002805482900390556107e6565b6001600160a01b03821660009081526020819052604090208054820190555b816001600160a01b0316836001600160a01b03167fddf252ad1be2c89b69c2b068fc378daa952ba7f163c4a11628f55a4df523b3ef8360405161082b91815260200190565b60405180910390a3505050565b602081526000825180602084015260005b818110156108665760208186018101516040868401015201610849565b506000604082850101526040601f19601f83011684010191505092915050565b80356001600160a01b038116811461089d57600080fd5b919050565b600080604083850312156108b557600080fd5b6108be83610886565b946020939093013593505050565b6000806000606084860312156108e157600080fd5b6108ea84610886565b92506108f860208501610886565b929592945050506040919091013590565b60006020828403121561091b57600080fd5b61092482610886565b9392505050565b60006020828403121561093d57600080fd5b5035919050565b6000806040838503121561095757600080fd5b61096083610886565b915061096e60208401610886565b90509250929050565b600181811c9082168061098b57607f821691505b6020821081036109ab57634e487b7160e01b600052602260045260246000fd5b50919050565b8082018082111561033757634e487b7160e01b600052601160045260246000fdfea26469706673582212200d9fbec46af0cb40956e84cad693b115679e0525b9a5ee0821d82804042af90b64736f6c634300081c0033",
  "linkReferences": {},
  "deployedLinkReferences": {}
}